{"contracts/voting.sol":{"voting":{"abi":[{"inputs":[{"internalType":"uint256","name":"time_Start","type":"uint256"},{"internalType":"uint256","name":"time_End","type":"uint256"}],"stateMutability":"nonpayable","type":"constructor"},{"inputs":[{"internalType":"address","name":"","type":"address"}],"name":"alreadyVote","outputs":[{"internalType":"bool","name":"","type":"bool"}],"stateMutability":"view","type":"function"},{"inputs":[],"name":"canVote","outputs":[{"internalType":"bool","name":"","type":"bool"}],"stateMutability":"view","type":"function"},{"inputs":[],"name":"intime","outputs":[{"internalType":"bool","name":"","type":"bool"}],"stateMutability":"view","type":"function"},{"inputs":[{"internalType":"uint256","name":"","type":"uint256"}],"name":"options","outputs":[{"internalType":"string","name":"","type":"string"}],"stateMutability":"view","type":"function"},{"inputs":[],"name":"timeEnd","outputs":[{"internalType":"uint256","name":"","type":"uint256"}],"stateMutability":"view","type":"function"},{"inputs":[],"name":"timeStart","outputs":[{"internalType":"uint256","name":"","type":"uint256"}],"stateMutability":"view","type":"function"},{"inputs":[],"name":"totaloptions","outputs":[{"internalType":"uint256","name":"","type":"uint256"}],"stateMutability":"view","type":"function"},{"inputs":[{"internalType":"uint256","name":"candidate","type":"uint256"}],"name":"vote","outputs":[],"stateMutability":"nonpayable","type":"function"},{"inputs":[{"internalType":"uint256","name":"","type":"uint256"}],"name":"voteCount","outputs":[{"internalType":"uint256","name":"","type":"uint256"}],"stateMutability":"view","type":"function"}],"evm":{"bytecode":{"linkReferences":{},"object":"608060405234801561001057600080fd5b5060405161092738038061092783398181016040528101906100329190610082565b816004819055508060058190555050506100c2565b600080fd5b6000819050919050565b61005f8161004c565b811461006a57600080fd5b50565b60008151905061007c81610056565b92915050565b6000806040838503121561009957610098610047565b5b60006100a78582860161006d565b92505060206100b88582860161006d565b9150509250929050565b610856806100d16000396000f3fe608060405234801561001057600080fd5b50600436106100935760003560e01c8063782071e511610066578063782071e514610132578063c37988d814610150578063ec7fc35214610180578063fd74d2941461019e578063fda263e8146101bc57610093565b80630121b93f14610098578063159e7064146100b4578063409e2205146100d25780634fc8a20d14610102575b600080fd5b6100b260048036038101906100ad9190610481565b6101da565b005b6100bc6102ec565b6040516100c991906104c9565b60405180910390f35b6100ec60048036038101906100e79190610481565b610341565b6040516100f99190610574565b60405180910390f35b61011c60048036038101906101179190610481565b6103e1565b60405161012991906105a5565b60405180910390f35b61013a6103f9565b60405161014791906105a5565b60405180910390f35b61016a6004803603810190610165919061061e565b6103ff565b60405161017791906104c9565b60405180910390f35b61018861041f565b60405161019591906104c9565b60405180910390f35b6101a661043a565b6040516101b391906105a5565b60405180910390f35b6101c4610440565b6040516101d191906105a5565b60405180910390f35b6101e261041f565b610221576040517f08c379a0000000000000000000000000000000000000000000000000000000008152600401610218906106bd565b60405180910390fd5b6102296102ec565b610268576040517f08c379a000000000000000000000000000000000000000000000000000000000815260040161025f90610729565b60405180910390fd5b6001600260003373ffffffffffffffffffffffffffffffffffffffff1673ffffffffffffffffffffffffffffffffffffffff16815260200190815260200160002060006101000a81548160ff0219169083151502179055506003600082815260200190815260200160002060008154809291906102e490610778565b919050555050565b6000600260003373ffffffffffffffffffffffffffffffffffffffff1673ffffffffffffffffffffffffffffffffffffffff16815260200190815260200160002060009054906101000a900460ff1615905090565b60006020528060005260406000206000915090508054610360906107ef565b80601f016020809104026020016040519081016040528092919081815260200182805461038c906107ef565b80156103d95780601f106103ae576101008083540402835291602001916103d9565b820191906000526020600020905b8154815290600101906020018083116103bc57829003601f168201915b505050505081565b60036020528060005260406000206000915090505481565b60015481565b60026020528060005260406000206000915054906101000a900460ff1681565b6000600454421015801561043557506005544211155b905090565b60045481565b60055481565b600080fd5b6000819050919050565b61045e8161044b565b811461046957600080fd5b50565b60008135905061047b81610455565b92915050565b60006020828403121561049757610496610446565b5b60006104a58482850161046c565b91505092915050565b60008115159050919050565b6104c3816104ae565b82525050565b60006020820190506104de60008301846104ba565b92915050565b600081519050919050565b600082825260208201905092915050565b60005b8381101561051e578082015181840152602081019050610503565b60008484015250505050565b6000601f19601f8301169050919050565b6000610546826104e4565b61055081856104ef565b9350610560818560208601610500565b6105698161052a565b840191505092915050565b6000602082019050818103600083015261058e818461053b565b905092915050565b61059f8161044b565b82525050565b60006020820190506105ba6000830184610596565b92915050565b600073ffffffffffffffffffffffffffffffffffffffff82169050919050565b60006105eb826105c0565b9050919050565b6105fb816105e0565b811461060657600080fd5b50565b600081359050610618816105f2565b92915050565b60006020828403121561063457610633610446565b5b600061064284828501610609565b91505092915050565b7f536520656e6375656e7472612066756572612064656c20706572696f646f206460008201527f6520766f746163696f6e00000000000000000000000000000000000000000000602082015250565b60006106a7602a836104ef565b91506106b28261064b565b604082019050919050565b600060208201905081810360008301526106d68161069a565b9050919050565b7f5961207265616c697a6f20737520766f746f0000000000000000000000000000600082015250565b60006107136012836104ef565b915061071e826106dd565b602082019050919050565b6000602082019050818103600083015261074281610706565b9050919050565b7f4e487b7100000000000000000000000000000000000000000000000000000000600052601160045260246000fd5b60006107838261044b565b91507fffffffffffffffffffffffffffffffffffffffffffffffffffffffffffffffff82036107b5576107b4610749565b5b600182019050919050565b7f4e487b7100000000000000000000000000000000000000000000000000000000600052602260045260246000fd5b6000600282049050600182168061080757607f821691505b60208210810361081a576108196107c0565b5b5091905056fea2646970667358221220a232cb1b8b1f9265f6000399156d1f95b61fd41b8d6660f865dbf508f0059ca864736f6c63430008120033","opcodes":"PUSH1 0x80 PUSH1 0x40 MSTORE CALLVALUE DUP1 ISZERO PUSH2 0x10 JUMPI PUSH1 0x0 DUP1 REVERT JUMPDEST POP PUSH1 0x40 MLOAD PUSH2 0x927 CODESIZE SUB DUP1 PUSH2 0x927 DUP4 CODECOPY DUP2 DUP2 ADD PUSH1 0x40 MSTORE DUP2 ADD SWAP1 PUSH2 0x32 SWAP2 SWAP1 PUSH2 0x82 JUMP JUMPDEST DUP2 PUSH1 0x4 DUP2 SWAP1 SSTORE POP DUP1 PUSH1 0x5 DUP2 SWAP1 SSTORE POP POP POP PUSH2 0xC2 JUMP JUMPDEST PUSH1 0x0 DUP1 REVERT JUMPDEST PUSH1 0x0 DUP2 SWAP1 POP SWAP2 SWAP1 POP JUMP JUMPDEST PUSH2 0x5F DUP2 PUSH2 0x4C JUMP JUMPDEST DUP2 EQ PUSH2 0x6A JUMPI PUSH1 0x0 DUP1 REVERT JUMPDEST POP JUMP JUMPDEST PUSH1 0x0 DUP2 MLOAD SWAP1 POP PUSH2 0x7C DUP2 PUSH2 0x56 JUMP JUMPDEST SWAP3 SWAP2 POP POP JUMP JUMPDEST PUSH1 0x0 DUP1 PUSH1 0x40 DUP4 DUP6 SUB SLT ISZERO PUSH2 0x99 JUMPI PUSH2 0x98 PUSH2 0x47 JUMP JUMPDEST JUMPDEST PUSH1 0x0 PUSH2 0xA7 DUP6 DUP3 DUP7 ADD PUSH2 0x6D JUMP JUMPDEST SWAP3 POP POP PUSH1 0x20 PUSH2 0xB8 DUP6 DUP3 DUP7 ADD PUSH2 0x6D JUMP JUMPDEST SWAP2 POP POP SWAP3 POP SWAP3 SWAP1 POP JUMP JUMPDEST PUSH2 0x856 DUP1 PUSH2 0xD1 PUSH1 0x0 CODECOPY PUSH1 0x0 RETURN INVALID PUSH1 0x80 PUSH1 0x40 MSTORE CALLVALUE DUP1 ISZERO PUSH2 0x10 JUMPI PUSH1 0x0 DUP1 REVERT JUMPDEST POP PUSH1 0x4 CALLDATASIZE LT PUSH2 0x93 JUMPI PUSH1 0x0 CALLDATALOAD PUSH1 0xE0 SHR DUP1 PUSH4 0x782071E5 GT PUSH2 0x66 JUMPI DUP1 PUSH4 0x782071E5 EQ PUSH2 0x132 JUMPI DUP1 PUSH4 0xC37988D8 EQ PUSH2 0x150 JUMPI DUP1 PUSH4 0xEC7FC352 EQ PUSH2 0x180 JUMPI DUP1 PUSH4 0xFD74D294 EQ PUSH2 0x19E JUMPI DUP1 PUSH4 0xFDA263E8 EQ PUSH2 0x1BC JUMPI PUSH2 0x93 JUMP JUMPDEST DUP1 PUSH4 0x121B93F EQ PUSH2 0x98 JUMPI DUP1 PUSH4 0x159E7064 EQ PUSH2 0xB4 JUMPI DUP1 PUSH4 0x409E2205 EQ PUSH2 0xD2 JUMPI DUP1 PUSH4 0x4FC8A20D EQ PUSH2 0x102 JUMPI JUMPDEST PUSH1 0x0 DUP1 REVERT JUMPDEST PUSH2 0xB2 PUSH1 0x4 DUP1 CALLDATASIZE SUB DUP2 ADD SWAP1 PUSH2 0xAD SWAP2 SWAP1 PUSH2 0x481 JUMP JUMPDEST PUSH2 0x1DA JUMP JUMPDEST STOP JUMPDEST PUSH2 0xBC PUSH2 0x2EC JUMP JUMPDEST PUSH1 0x40 MLOAD PUSH2 0xC9 SWAP2 SWAP1 PUSH2 0x4C9 JUMP JUMPDEST PUSH1 0x40 MLOAD DUP1 SWAP2 SUB SWAP1 RETURN JUMPDEST PUSH2 0xEC PUSH1 0x4 DUP1 CALLDATASIZE SUB DUP2 ADD SWAP1 PUSH2 0xE7 SWAP2 SWAP1 PUSH2 0x481 JUMP JUMPDEST PUSH2 0x341 JUMP JUMPDEST PUSH1 0x40 MLOAD PUSH2 0xF9 SWAP2 SWAP1 PUSH2 0x574 JUMP JUMPDEST PUSH1 0x40 MLOAD DUP1 SWAP2 SUB SWAP1 RETURN JUMPDEST PUSH2 0x11C PUSH1 0x4 DUP1 CALLDATASIZE SUB DUP2 ADD SWAP1 PUSH2 0x117 SWAP2 SWAP1 PUSH2 0x481 JUMP JUMPDEST PUSH2 0x3E1 JUMP JUMPDEST PUSH1 0x40 MLOAD PUSH2 0x129 SWAP2 SWAP1 PUSH2 0x5A5 JUMP JUMPDEST PUSH1 0x40 MLOAD DUP1 SWAP2 SUB SWAP1 RETURN JUMPDEST PUSH2 0x13A PUSH2 0x3F9 JUMP JUMPDEST PUSH1 0x40 MLOAD PUSH2 0x147 SWAP2 SWAP1 PUSH2 0x5A5 JUMP JUMPDEST PUSH1 0x40 MLOAD DUP1 SWAP2 SUB SWAP1 RETURN JUMPDEST PUSH2 0x16A PUSH1 0x4 DUP1 CALLDATASIZE SUB DUP2 ADD SWAP1 PUSH2 0x165 SWAP2 SWAP1 PUSH2 0x61E JUMP JUMPDEST PUSH2 0x3FF JUMP JUMPDEST PUSH1 0x40 MLOAD PUSH2 0x177 SWAP2 SWAP1 PUSH2 0x4C9 JUMP JUMPDEST PUSH1 0x40 MLOAD DUP1 SWAP2 SUB SWAP1 RETURN JUMPDEST PUSH2 0x188 PUSH2 0x41F JUMP JUMPDEST PUSH1 0x40 MLOAD PUSH2 0x195 SWAP2 SWAP1 PUSH2 0x4C9 JUMP JUMPDEST PUSH1 0x40 MLOAD DUP1 SWAP2 SUB SWAP1 RETURN JUMPDEST PUSH2 0x1A6 PUSH2 0x43A JUMP JUMPDEST PUSH1 0x40 MLOAD PUSH2 0x1B3 SWAP2 SWAP1 PUSH2 0x5A5 JUMP JUMPDEST PUSH1 0x40 MLOAD DUP1 SWAP2 SUB SWAP1 RETURN JUMPDEST PUSH2 0x1C4 PUSH2 0x440 JUMP JUMPDEST PUSH1 0x40 MLOAD PUSH2 0x1D1 SWAP2 SWAP1 PUSH2 0x5A5 JUMP JUMPDEST PUSH1 0x40 MLOAD DUP1 SWAP2 SUB SWAP1 RETURN JUMPDEST PUSH2 0x1E2 PUSH2 0x41F JUMP JUMPDEST PUSH2 0x221 JUMPI PUSH1 0x40 MLOAD PUSH32 0x8C379A000000000000000000000000000000000000000000000000000000000 DUP2 MSTORE PUSH1 0x4 ADD PUSH2 0x218 SWAP1 PUSH2 0x6BD JUMP JUMPDEST PUSH1 0x40 MLOAD DUP1 SWAP2 SUB SWAP1 REVERT JUMPDEST PUSH2 0x229 PUSH2 0x2EC JUMP JUMPDEST PUSH2 0x268 JUMPI PUSH1 0x40 MLOAD PUSH32 0x8C379A000000000000000000000000000000000000000000000000000000000 DUP2 MSTORE PUSH1 0x4 ADD PUSH2 0x25F SWAP1 PUSH2 0x729 JUMP JUMPDEST PUSH1 0x40 MLOAD DUP1 SWAP2 SUB SWAP1 REVERT JUMPDEST PUSH1 0x1 PUSH1 0x2 PUSH1 0x0 CALLER PUSH20 0xFFFFFFFFFFFFFFFFFFFFFFFFFFFFFFFFFFFFFFFF AND PUSH20 0xFFFFFFFFFFFFFFFFFFFFFFFFFFFFFFFFFFFFFFFF AND DUP2 MSTORE PUSH1 0x20 ADD SWAP1 DUP2 MSTORE PUSH1 0x20 ADD PUSH1 0x0 KECCAK256 PUSH1 0x0 PUSH2 0x100 EXP DUP2 SLOAD DUP2 PUSH1 0xFF MUL NOT AND SWAP1 DUP4 ISZERO ISZERO MUL OR SWAP1 SSTORE POP PUSH1 0x3 PUSH1 0x0 DUP3 DUP2 MSTORE PUSH1 0x20 ADD SWAP1 DUP2 MSTORE PUSH1 0x20 ADD PUSH1 0x0 KECCAK256 PUSH1 0x0 DUP2 SLOAD DUP1 SWAP3 SWAP2 SWAP1 PUSH2 0x2E4 SWAP1 PUSH2 0x778 JUMP JUMPDEST SWAP2 SWAP1 POP SSTORE POP POP JUMP JUMPDEST PUSH1 0x0 PUSH1 0x2 PUSH1 0x0 CALLER PUSH20 0xFFFFFFFFFFFFFFFFFFFFFFFFFFFFFFFFFFFFFFFF AND PUSH20 0xFFFFFFFFFFFFFFFFFFFFFFFFFFFFFFFFFFFFFFFF AND DUP2 MSTORE PUSH1 0x20 ADD SWAP1 DUP2 MSTORE PUSH1 0x20 ADD PUSH1 0x0 KECCAK256 PUSH1 0x0 SWAP1 SLOAD SWAP1 PUSH2 0x100 EXP SWAP1 DIV PUSH1 0xFF AND ISZERO SWAP1 POP SWAP1 JUMP JUMPDEST PUSH1 0x0 PUSH1 0x20 MSTORE DUP1 PUSH1 0x0 MSTORE PUSH1 0x40 PUSH1 0x0 KECCAK256 PUSH1 0x0 SWAP2 POP SWAP1 POP DUP1 SLOAD PUSH2 0x360 SWAP1 PUSH2 0x7EF JUMP JUMPDEST DUP1 PUSH1 0x1F ADD PUSH1 0x20 DUP1 SWAP2 DIV MUL PUSH1 0x20 ADD PUSH1 0x40 MLOAD SWAP1 DUP2 ADD PUSH1 0x40 MSTORE DUP1 SWAP3 SWAP2 SWAP1 DUP2 DUP2 MSTORE PUSH1 0x20 ADD DUP3 DUP1 SLOAD PUSH2 0x38C SWAP1 PUSH2 0x7EF JUMP JUMPDEST DUP1 ISZERO PUSH2 0x3D9 JUMPI DUP1 PUSH1 0x1F LT PUSH2 0x3AE JUMPI PUSH2 0x100 DUP1 DUP4 SLOAD DIV MUL DUP4 MSTORE SWAP2 PUSH1 0x20 ADD SWAP2 PUSH2 0x3D9 JUMP JUMPDEST DUP3 ADD SWAP2 SWAP1 PUSH1 0x0 MSTORE PUSH1 0x20 PUSH1 0x0 KECCAK256 SWAP1 JUMPDEST DUP2 SLOAD DUP2 MSTORE SWAP1 PUSH1 0x1 ADD SWAP1 PUSH1 0x20 ADD DUP1 DUP4 GT PUSH2 0x3BC JUMPI DUP3 SWAP1 SUB PUSH1 0x1F AND DUP3 ADD SWAP2 JUMPDEST POP POP POP POP POP DUP2 JUMP JUMPDEST PUSH1 0x3 PUSH1 0x20 MSTORE DUP1 PUSH1 0x0 MSTORE PUSH1 0x40 PUSH1 0x0 KECCAK256 PUSH1 0x0 SWAP2 POP SWAP1 POP SLOAD DUP2 JUMP JUMPDEST PUSH1 0x1 SLOAD DUP2 JUMP JUMPDEST PUSH1 0x2 PUSH1 0x20 MSTORE DUP1 PUSH1 0x0 MSTORE PUSH1 0x40 PUSH1 0x0 KECCAK256 PUSH1 0x0 SWAP2 POP SLOAD SWAP1 PUSH2 0x100 EXP SWAP1 DIV PUSH1 0xFF AND DUP2 JUMP JUMPDEST PUSH1 0x0 PUSH1 0x4 SLOAD TIMESTAMP LT ISZERO DUP1 ISZERO PUSH2 0x435 JUMPI POP PUSH1 0x5 SLOAD TIMESTAMP GT ISZERO JUMPDEST SWAP1 POP SWAP1 JUMP JUMPDEST PUSH1 0x4 SLOAD DUP2 JUMP JUMPDEST PUSH1 0x5 SLOAD DUP2 JUMP JUMPDEST PUSH1 0x0 DUP1 REVERT JUMPDEST PUSH1 0x0 DUP2 SWAP1 POP SWAP2 SWAP1 POP JUMP JUMPDEST PUSH2 0x45E DUP2 PUSH2 0x44B JUMP JUMPDEST DUP2 EQ PUSH2 0x469 JUMPI PUSH1 0x0 DUP1 REVERT JUMPDEST POP JUMP JUMPDEST PUSH1 0x0 DUP2 CALLDATALOAD SWAP1 POP PUSH2 0x47B DUP2 PUSH2 0x455 JUMP JUMPDEST SWAP3 SWAP2 POP POP JUMP JUMPDEST PUSH1 0x0 PUSH1 0x20 DUP3 DUP5 SUB SLT ISZERO PUSH2 0x497 JUMPI PUSH2 0x496 PUSH2 0x446 JUMP JUMPDEST JUMPDEST PUSH1 0x0 PUSH2 0x4A5 DUP5 DUP3 DUP6 ADD PUSH2 0x46C JUMP JUMPDEST SWAP2 POP POP SWAP3 SWAP2 POP POP JUMP JUMPDEST PUSH1 0x0 DUP2 ISZERO ISZERO SWAP1 POP SWAP2 SWAP1 POP JUMP JUMPDEST PUSH2 0x4C3 DUP2 PUSH2 0x4AE JUMP JUMPDEST DUP3 MSTORE POP POP JUMP JUMPDEST PUSH1 0x0 PUSH1 0x20 DUP3 ADD SWAP1 POP PUSH2 0x4DE PUSH1 0x0 DUP4 ADD DUP5 PUSH2 0x4BA JUMP JUMPDEST SWAP3 SWAP2 POP POP JUMP JUMPDEST PUSH1 0x0 DUP2 MLOAD SWAP1 POP SWAP2 SWAP1 POP JUMP JUMPDEST PUSH1 0x0 DUP3 DUP3 MSTORE PUSH1 0x20 DUP3 ADD SWAP1 POP SWAP3 SWAP2 POP POP JUMP JUMPDEST PUSH1 0x0 JUMPDEST DUP4 DUP2 LT ISZERO PUSH2 0x51E JUMPI DUP1 DUP3 ADD MLOAD DUP2 DUP5 ADD MSTORE PUSH1 0x20 DUP2 ADD SWAP1 POP PUSH2 0x503 JUMP JUMPDEST PUSH1 0x0 DUP5 DUP5 ADD MSTORE POP POP POP POP JUMP JUMPDEST PUSH1 0x0 PUSH1 0x1F NOT PUSH1 0x1F DUP4 ADD AND SWAP1 POP SWAP2 SWAP1 POP JUMP JUMPDEST PUSH1 0x0 PUSH2 0x546 DUP3 PUSH2 0x4E4 JUMP JUMPDEST PUSH2 0x550 DUP2 DUP6 PUSH2 0x4EF JUMP JUMPDEST SWAP4 POP PUSH2 0x560 DUP2 DUP6 PUSH1 0x20 DUP7 ADD PUSH2 0x500 JUMP JUMPDEST PUSH2 0x569 DUP2 PUSH2 0x52A JUMP JUMPDEST DUP5 ADD SWAP2 POP POP SWAP3 SWAP2 POP POP JUMP JUMPDEST PUSH1 0x0 PUSH1 0x20 DUP3 ADD SWAP1 POP DUP2 DUP2 SUB PUSH1 0x0 DUP4 ADD MSTORE PUSH2 0x58E DUP2 DUP5 PUSH2 0x53B JUMP JUMPDEST SWAP1 POP SWAP3 SWAP2 POP POP JUMP JUMPDEST PUSH2 0x59F DUP2 PUSH2 0x44B JUMP JUMPDEST DUP3 MSTORE POP POP JUMP JUMPDEST PUSH1 0x0 PUSH1 0x20 DUP3 ADD SWAP1 POP PUSH2 0x5BA PUSH1 0x0 DUP4 ADD DUP5 PUSH2 0x596 JUMP JUMPDEST SWAP3 SWAP2 POP POP JUMP JUMPDEST PUSH1 0x0 PUSH20 0xFFFFFFFFFFFFFFFFFFFFFFFFFFFFFFFFFFFFFFFF DUP3 AND SWAP1 POP SWAP2 SWAP1 POP JUMP JUMPDEST PUSH1 0x0 PUSH2 0x5EB DUP3 PUSH2 0x5C0 JUMP JUMPDEST SWAP1 POP SWAP2 SWAP1 POP JUMP JUMPDEST PUSH2 0x5FB DUP2 PUSH2 0x5E0 JUMP JUMPDEST DUP2 EQ PUSH2 0x606 JUMPI PUSH1 0x0 DUP1 REVERT JUMPDEST POP JUMP JUMPDEST PUSH1 0x0 DUP2 CALLDATALOAD SWAP1 POP PUSH2 0x618 DUP2 PUSH2 0x5F2 JUMP JUMPDEST SWAP3 SWAP2 POP POP JUMP JUMPDEST PUSH1 0x0 PUSH1 0x20 DUP3 DUP5 SUB SLT ISZERO PUSH2 0x634 JUMPI PUSH2 0x633 PUSH2 0x446 JUMP JUMPDEST JUMPDEST PUSH1 0x0 PUSH2 0x642 DUP5 DUP3 DUP6 ADD PUSH2 0x609 JUMP JUMPDEST SWAP2 POP POP SWAP3 SWAP2 POP POP JUMP JUMPDEST PUSH32 0x536520656E6375656E7472612066756572612064656C20706572696F646F2064 PUSH1 0x0 DUP3 ADD MSTORE PUSH32 0x6520766F746163696F6E00000000000000000000000000000000000000000000 PUSH1 0x20 DUP3 ADD MSTORE POP JUMP JUMPDEST PUSH1 0x0 PUSH2 0x6A7 PUSH1 0x2A DUP4 PUSH2 0x4EF JUMP JUMPDEST SWAP2 POP PUSH2 0x6B2 DUP3 PUSH2 0x64B JUMP JUMPDEST PUSH1 0x40 DUP3 ADD SWAP1 POP SWAP2 SWAP1 POP JUMP JUMPDEST PUSH1 0x0 PUSH1 0x20 DUP3 ADD SWAP1 POP DUP2 DUP2 SUB PUSH1 0x0 DUP4 ADD MSTORE PUSH2 0x6D6 DUP2 PUSH2 0x69A JUMP JUMPDEST SWAP1 POP SWAP2 SWAP1 POP JUMP JUMPDEST PUSH32 0x5961207265616C697A6F20737520766F746F0000000000000000000000000000 PUSH1 0x0 DUP3 ADD MSTORE POP JUMP JUMPDEST PUSH1 0x0 PUSH2 0x713 PUSH1 0x12 DUP4 PUSH2 0x4EF JUMP JUMPDEST SWAP2 POP PUSH2 0x71E DUP3 PUSH2 0x6DD JUMP JUMPDEST PUSH1 0x20 DUP3 ADD SWAP1 POP SWAP2 SWAP1 POP JUMP JUMPDEST PUSH1 0x0 PUSH1 0x20 DUP3 ADD SWAP1 POP DUP2 DUP2 SUB PUSH1 0x0 DUP4 ADD MSTORE PUSH2 0x742 DUP2 PUSH2 0x706 JUMP JUMPDEST SWAP1 POP SWAP2 SWAP1 POP JUMP JUMPDEST PUSH32 0x4E487B7100000000000000000000000000000000000000000000000000000000 PUSH1 0x0 MSTORE PUSH1 0x11 PUSH1 0x4 MSTORE PUSH1 0x24 PUSH1 0x0 REVERT JUMPDEST PUSH1 0x0 PUSH2 0x783 DUP3 PUSH2 0x44B JUMP JUMPDEST SWAP2 POP PUSH32 0xFFFFFFFFFFFFFFFFFFFFFFFFFFFFFFFFFFFFFFFFFFFFFFFFFFFFFFFFFFFFFFFF DUP3 SUB PUSH2 0x7B5 JUMPI PUSH2 0x7B4 PUSH2 0x749 JUMP JUMPDEST JUMPDEST PUSH1 0x1 DUP3 ADD SWAP1 POP SWAP2 SWAP1 POP JUMP JUMPDEST PUSH32 0x4E487B7100000000000000000000000000000000000000000000000000000000 PUSH1 0x0 MSTORE PUSH1 0x22 PUSH1 0x4 MSTORE PUSH1 0x24 PUSH1 0x0 REVERT JUMPDEST PUSH1 0x0 PUSH1 0x2 DUP3 DIV SWAP1 POP PUSH1 0x1 DUP3 AND DUP1 PUSH2 0x807 JUMPI PUSH1 0x7F DUP3 AND SWAP2 POP JUMPDEST PUSH1 0x20 DUP3 LT DUP2 SUB PUSH2 0x81A JUMPI PUSH2 0x819 PUSH2 0x7C0 JUMP JUMPDEST JUMPDEST POP SWAP2 SWAP1 POP JUMP INVALID LOG2 PUSH5 0x6970667358 0x22 SLT KECCAK256 LOG2 ORIGIN 0xCB SHL DUP12 0x1F SWAP3 PUSH6 0xF6000399156D 0x1F SWAP6 0xB6 0x1F 0xD4 SHL DUP14 PUSH7 0x60F865DBF508F0 SDIV SWAP13 0xA8 PUSH5 0x736F6C6343 STOP ADDMOD SLT STOP CALLER "},"methodIdentifiers":{"alreadyVote(address)":"c37988d8","canVote()":"159e7064","intime()":"ec7fc352","options(uint256)":"409e2205","timeEnd()":"fda263e8","timeStart()":"fd74d294","totaloptions()":"782071e5","vote(uint256)":"0121b93f","voteCount(uint256)":"4fc8a20d"}}}}}