{
  "_format": "hh-sol-artifact-1",
  "contractName": "voting",
  "sourceName": "contracts/voting.sol",
  "abi": [
    {
      "inputs": [
        {
          "internalType": "uint256",
          "name": "time_Start",
          "type": "uint256"
        },
        {
          "internalType": "uint256",
          "name": "time_End",
          "type": "uint256"
        }
      ],
      "stateMutability": "nonpayable",
      "type": "constructor"
    },
    {
      "inputs": [
        {
          "internalType": "address",
          "name": "",
          "type": "address"
        }
      ],
      "name": "alreadyVote",
      "outputs": [
        {
          "internalType": "bool",
          "name": "",
          "type": "bool"
        }
      ],
      "stateMutability": "view",
      "type": "function"
    },
    {
      "inputs": [],
      "name": "canVote",
      "outputs": [
        {
          "internalType": "bool",
          "name": "",
          "type": "bool"
        }
      ],
      "stateMutability": "view",
      "type": "function"
    },
    {
      "inputs": [],
      "name": "intime",
      "outputs": [
        {
          "internalType": "bool",
          "name": "",
          "type": "bool"
        }
      ],
      "stateMutability": "view",
      "type": "function"
    },
    {
      "inputs": [
        {
          "internalType": "uint256",
          "name": "",
          "type": "uint256"
        }
      ],
      "name": "options",
      "outputs": [
        {
          "internalType": "string",
          "name": "",
          "type": "string"
        }
      ],
      "stateMutability": "view",
      "type": "function"
    },
    {
      "inputs": [],
      "name": "timeEnd",
      "outputs": [
        {
          "internalType": "uint256",
          "name": "",
          "type": "uint256"
        }
      ],
      "stateMutability": "view",
      "type": "function"
    },
    {
      "inputs": [],
      "name": "timeStart",
      "outputs": [
        {
          "internalType": "uint256",
          "name": "",
          "type": "uint256"
        }
      ],
      "stateMutability": "view",
      "type": "function"
    },
    {
      "inputs": [],
      "name": "totaloptions",
      "outputs": [
        {
          "internalType": "uint256",
          "name": "",
          "type": "uint256"
        }
      ],
      "stateMutability": "view",
      "type": "function"
    },
    {
      "inputs": [
        {
          "internalType": "uint256",
          "name": "candidate",
          "type": "uint256"
        }
      ],
      "name": "vote",
      "outputs": [],
      "stateMutability": "nonpayable",
      "type": "function"
    },
    {
      "inputs": [
        {
          "internalType": "uint256",
          "name": "",
          "type": "uint256"
        }
      ],
      "name": "voteCount",
      "outputs": [
        {
          "internalType": "uint256",
          "name": "",
          "type": "uint256"
        }
      ],
      "stateMutability": "view",
      "type": "function"
    }
  ],
  "bytecode": "0x608060405234801561001057600080fd5b5060405161092738038061092783398181016040528101906100329190610082565b816004819055508060058190555050506100c2565b600080fd5b6000819050919050565b61005f8161004c565b811461006a57600080fd5b50565b60008151905061007c81610056565b92915050565b6000806040838503121561009957610098610047565b5b60006100a78582860161006d565b92505060206100b88582860161006d565b9150509250929050565b610856806100d16000396000f3fe608060405234801561001057600080fd5b50600436106100935760003560e01c8063782071e511610066578063782071e514610132578063c37988d814610150578063ec7fc35214610180578063fd74d2941461019e578063fda263e8146101bc57610093565b80630121b93f14610098578063159e7064146100b4578063409e2205146100d25780634fc8a20d14610102575b600080fd5b6100b260048036038101906100ad9190610481565b6101da565b005b6100bc6102ec565b6040516100c991906104c9565b60405180910390f35b6100ec60048036038101906100e79190610481565b610341565b6040516100f99190610574565b60405180910390f35b61011c60048036038101906101179190610481565b6103e1565b60405161012991906105a5565b60405180910390f35b61013a6103f9565b60405161014791906105a5565b60405180910390f35b61016a6004803603810190610165919061061e565b6103ff565b60405161017791906104c9565b60405180910390f35b61018861041f565b60405161019591906104c9565b60405180910390f35b6101a661043a565b6040516101b391906105a5565b60405180910390f35b6101c4610440565b6040516101d191906105a5565b60405180910390f35b6101e261041f565b610221576040517f08c379a0000000000000000000000000000000000000000000000000000000008152600401610218906106bd565b60405180910390fd5b6102296102ec565b610268576040517f08c379a000000000000000000000000000000000000000000000000000000000815260040161025f90610729565b60405180910390fd5b6001600260003373ffffffffffffffffffffffffffffffffffffffff1673ffffffffffffffffffffffffffffffffffffffff16815260200190815260200160002060006101000a81548160ff0219169083151502179055506003600082815260200190815260200160002060008154809291906102e490610778565b919050555050565b6000600260003373ffffffffffffffffffffffffffffffffffffffff1673ffffffffffffffffffffffffffffffffffffffff16815260200190815260200160002060009054906101000a900460ff1615905090565b60006020528060005260406000206000915090508054610360906107ef565b80601f016020809104026020016040519081016040528092919081815260200182805461038c906107ef565b80156103d95780601f106103ae576101008083540402835291602001916103d9565b820191906000526020600020905b8154815290600101906020018083116103bc57829003601f168201915b505050505081565b60036020528060005260406000206000915090505481565b60015481565b60026020528060005260406000206000915054906101000a900460ff1681565b6000600454421015801561043557506005544211155b905090565b60045481565b60055481565b600080fd5b6000819050919050565b61045e8161044b565b811461046957600080fd5b50565b60008135905061047b81610455565b92915050565b60006020828403121561049757610496610446565b5b60006104a58482850161046c565b91505092915050565b60008115159050919050565b6104c3816104ae565b82525050565b60006020820190506104de60008301846104ba565b92915050565b600081519050919050565b600082825260208201905092915050565b60005b8381101561051e578082015181840152602081019050610503565b60008484015250505050565b6000601f19601f8301169050919050565b6000610546826104e4565b61055081856104ef565b9350610560818560208601610500565b6105698161052a565b840191505092915050565b6000602082019050818103600083015261058e818461053b565b905092915050565b61059f8161044b565b82525050565b60006020820190506105ba6000830184610596565b92915050565b600073ffffffffffffffffffffffffffffffffffffffff82169050919050565b60006105eb826105c0565b9050919050565b6105fb816105e0565b811461060657600080fd5b50565b600081359050610618816105f2565b92915050565b60006020828403121561063457610633610446565b5b600061064284828501610609565b91505092915050565b7f536520656e6375656e7472612066756572612064656c20706572696f646f206460008201527f6520766f746163696f6e00000000000000000000000000000000000000000000602082015250565b60006106a7602a836104ef565b91506106b28261064b565b604082019050919050565b600060208201905081810360008301526106d68161069a565b9050919050565b7f5961207265616c697a6f20737520766f746f0000000000000000000000000000600082015250565b60006107136012836104ef565b915061071e826106dd565b602082019050919050565b6000602082019050818103600083015261074281610706565b9050919050565b7f4e487b7100000000000000000000000000000000000000000000000000000000600052601160045260246000fd5b60006107838261044b565b91507fffffffffffffffffffffffffffffffffffffffffffffffffffffffffffffffff82036107b5576107b4610749565b5b600182019050919050565b7f4e487b7100000000000000000000000000000000000000000000000000000000600052602260045260246000fd5b6000600282049050600182168061080757607f821691505b60208210810361081a576108196107c0565b5b5091905056fea2646970667358221220a232cb1b8b1f9265f6000399156d1f95b61fd41b8d6660f865dbf508f0059ca864736f6c63430008120033",
  "linkReferences": {},
  "deployedLinkReferences": {}
}